:1000000000800020BD0100007915000035150000BA
:1000100035150000351500003515000035150000B8
:100020003515000035150000351500007915000064
:100030007915000035150000D9260000DD260000E6
:100040007915000079150000791500007915000078
:100050007915000079150000791500007915000068
:100060007915000079150000791500007915000058
:100070007915000079150000791500007915000048
:100080007915000079150000791500007915000038
:100090007915000079150000791500007915000028
:1000A0007915000079150000791500007915000018
:1000B0007915000079150000791500007915000008
:1000C00079150000791500007915000079150000F8
:1000D00079150000791500007915000079150000E8
:1000E00079150000791500007915000079150000D8
:1000F00079150000791500007915000079150000C8
:1001000079150000791500007915000079150000B7
:1001100079150000791500007915000079150000A7
:100120007915000079150000791500007915000097
:100130007915000079150000791500007915000087
:100140007915000079150000791500007915000077
:100150007915000079150000791500007915000067
:1001600079150000F11800007915000079150000DC
:100170007915000079150000791500007915000047
:100180007915000079150000791500007915000037
:100190007915000079150000791500007915000027
:1001A0007915000079150000791500007915000017
:1001B000791500007915000079150000534B4CF2B9
:1001C000205210B5DA814DF62812DA8100BF00BF47
:1001D00001F0D6F94E4B4FF010621A634D4A9A6304
:1001E0004D4ADA634D4A136913F4807303D15361A6
:1001F0004FF4A85313614A4B9A78110703D59A78A4
:1002000042F008029A70474B47492A221A70474B1E
:10021000474A8B4204D252F8040B43F8040BF8E728
:10022000444B454900228B4202D243F8042BFAE7A3
:10023000424943484FF4DE7201F0A8F8414B424A6C
:10024000802103F8011B9342FBD14FF0E0233C4A8D
:10025000C3F8082D3D4B8A221A70A3F5805324223F
:100260005A70A0221A709A799207FCD59A79D4060E
:10027000FCD4374B9A7902F00C02082AFAD10522F5
:100280001A7143225A719A799006FCD5304A9379B3
:100290005906FCD51E4B4FF08171596405219964B4
:1002A00020211170917901F00C010C29FAD1294A11
:1002B0005A604FF0E023284A5A6100229A610722CF
:1002C0001A61264AC3F8202D62B601F09FF9134B3C
:1002D0005B69DA0705D5224801F08CF9214B224AE7
:1002E000DA61224B1B785B0609D51E4C1E4BE26976
:1002F0009A4204D11A4801F07DF90023E36101F02C
:1003000045F902F0E5FA01F039F8FEE70020054072
:1003100000800440823F04000100002B00D0034015
:1003200000D0074000E00740E4B7FF1F1CB7FF1FE5
:10033000182C000000B8FF1F48EBFF1F0000000052
:1003400000B2FF1F00E400E05FE400E00050064060
:1003500000400640C01005003F19010000002020A9
:10036000ECDE606A00E00340A5C3945A00F0074049
:10037000FFFFFFFFFFFFFFFFFFFFFFFFFFFFFFFF8D
:10038000FFFFFFFFFFFFFFFFFFFFFFFFFFFFFFFF7D
:10039000FFFFFFFFFFFFFFFFFFFFFFFFFFFFFFFF6D
:1003A000FFFFFFFFFFFFFFFFFFFFFFFFFFFFFFFF5D
:1003B000FFFFFFFFFFFFFFFFFFFFFFFFFFFFFFFF4D
:1003C000FFFFFFFFFFFFFFFFFFFFFFFFFFFFFFFF3D
:1003D000FFFFFFFFFFFFFFFFFFFFFFFFFFFFFFFF2D
:1003E000FFFFFFFFFFFFFFFFFFFFFFFFFFFFFFFF1D
:1003F000FFFFFFFFFFFFFFFFFFFFFFFFFFFFFFFF0D
:10040000FFFFFFFFFFFFFFFFFFFFFFFFDEF9FFFF23
:100410000548064B1B1AD90F01EBA301491002D066
:10042000034B03B118477047E4B7FF1FE4B7FF1F42
:100430000000000008B5054B1BB105490548AFF3A6
:100440000080BDE80840FFF7E3BF00BF00000000E8
:1004500000B8FF1F102C00002DE9F043484D494C17
:100460002E68494FDFF8249183B040F2EE2802F065
:100470009BF82378002B6DD03B78DA076AD52B6880
:10048000D9F800209B1A0E2B64D92B680093009E8C
:100490003D4FDFF8F88002F087F82378002B63D017
:1004A0003B78DB0760D52B68D8F800209B1A0E2B11
:1004B0005AD91121364801F037FF364800F050FF75
:1004C0000421354801F030FF0821344801F02CFFA9
:1004D000304800F045FF1721314801F025FF2D4835
:1004E00000F03EFF06212F4801F01EFF4FF400717F
:1004F000284800F02DFF274800F032FF08212A4845
:1005000001F012FF0821234800F022FF214800F0EB
:1005100027FF0D21254801F007FF1E4800F020FFAE
:10052000234800F035F900242146214800220134F7
:1005300000F0D8FAB4F5805FF6D11D4800F064FAF7
:1005400005211C4801F0F0FE124803B0BDE8F0435D
:1005500000F006BF2B6822789B1B6AB1B3F5FA6FD7
:1005600093D802F021F882E72B680193019B9B1B33
:10057000B3F5FA6F8FD39CE74345F2D985E700BF07
:1005800070E8FF1F7DE8FF1F69E9FF1F6CE9FF1F8F
:10059000F029000024B7FF1F042A00000C2A0000E5
:1005A000182A0000302A0000382A0000442A0000DF
:1005B0003CB8FF1F542A000070B5474C474D484EC9
:1005C00001F07EFE002811DD01F034FE2378C0B278
:1005D0006BB94128F4D1434A434B012141201070AB
:1005E0001960217001F06CFE0028EDDC70BD012B5C
:1005F00023D13D4B3B4AD3F800C00CF10101042943
:1006000002F80C00196037D00929D9DDD1883748A4
:100610000180481EB0F5007F5AD2127A501E07287A
:1006200056D802FB01F1324A2C4B01EB410111601B
:1006300000221A6002232370C2E72B68DFF8B4C0DF
:10064000A6FB032121F0010202EB51029A1A022AB1
:100650000CF802004FEA510117D0254A1268013305
:1006600093422B60ACD3244800F0CEF91E4B0022FD
:1006700022701A602A60A3E751784E2921D0002108
:100680004128217019609BD1A7E7184A1088B1FB57
:10069000F0F2072AE1D800FB1211B1F5007FDCD29D
:1006A0009CF80130144801EB42219CF800201B0209
:1006B00043EA02439CF802201A4300F013FA2B6825
:1006C000CBE791784B29DAD1D1785229D7D177E786
:1006D000002222701A6073E718B8FF1F20B8FF1FAE
:1006E000ABAAAAAA30B8FF1F2CB8FF1F28B8FF1F5B
:1006F00024B8FF1F1CB8FF1F3CB8FF1F00B583B014
:1007000002210091044B054A05484FF4007100F0A6
:1007100027F803B000BD00BF40B8FF1F0082FF1FD5
:100720003CB8FF1F08B5064A064B1279DA7700F08D
:10073000FFFF054B054900221A70086008BD00BF85
:1007400048E8FF1F0080004044E8FF1F40E8FF1F0B
:1007500000B583B0019000F02BFD019803B000BDFF
:1007600000B5DFF81CE09DF804C0AEF800100549A4
:100770000A60054A054982F800C00B6000BD00BF51
:100780006CE8FF1F68E8FF1F60E8FF1F64E8FF1FB9
:100790002DE9F0418B4E8C4A337814888B4D03F051
:1007A0001F03052B9ABF04EB4404E400640128688E
:1007B0002246002102F048F8854B1868002800F016
:1007C000CE802246002102F03FF8824BFF22C3F880
:1007D000C8200121022000F071FF01210E2000F04D
:1007E0006DFF0121072000F069FF0121082000F0C2
:1007F00065FF0121062000F061FF0121142000F0B7
:100800005DFF0121152000F059FF0121052000F0B6
:1008100055FF337803F0C003402B00F0CD804FF03C
:100820001E0E0A272C216C4BDFF8B0C16C486D4EB0
:1008300000221A604FF008085A6099606921C3F8D5
:100840000080D96059611F61C3F818E0DCF80030FE
:100850008664654E9A80DA609A829A61DA80634A89
:100860001E601A61D98B01220F049A60224679D446
:10087000B4F5004F01DADC83DC82998B5C482D688B
:1008800041F00801998303685A491D60DA83DA82CE
:100890001961DD8B002199829961D98001219980AC
:1008A00099602D04C4F10001D96077D4B4F5004FEC
:1008B00001DADA83DA82998B4F4D41F0080199838E
:1008C0002B684E491E601961DE8B00219980D9602A
:1008D00099829961D98001219960310450D4B4F58D
:1008E000004F01DADA83DA82998B9CF8042041F018
:1008F00008019983998B02F1804202F5043241F09C
:10090000020199830021B22311701370037903F15E
:10091000804303F50433A22219701A702B792F4AF1
:1009200003F1804303F50433A32019701870304994
:10093000314800F057FC2A793148324D531103F108
:100940003823403302F1100401219B0002F01F0202
:1009500001FA02F240F824501A60BDE8F0812A68DA
:100960001A6032E7B4F5007F87DAD98B6FF308019C
:100970002143D983D98A6FF308012143D9827CE7C7
:10098000B4F5007FB0DAD98B6FF308011143D98336
:10099000D98A6FF308010A43DA82A5E7B4F5007F2C
:1009A00089DAD98B6FF308011143D983D98A6FF3A0
:1009B00008011143D9827EE74FF03D0E15275921DA
:1009C00031E700BF60E8FF1F6CE8FF1F68E8FF1F0A
:1009D00064E8FF1F00F00F4000800B4058E8FF1F45
:1009E00000A004400003010020B7FF1FC4F00F4027
:1009F00050E8FF1FC0F00F4048E8FF1FC8F00F404D
:100A000000B2FF1F2507000038B52A4C2378002BC1
:100A1000FCD1294A294B1168186881420CD0284B17
:100A2000284A1B78128803F01F03052B3ED802EBDF
:100A30004202D20000F0AAFC234D00F079FE2B68A0
:100A4000C01AB0F5967FF8D320492823CB604B61BC
:100A50000B6972B64A689A42FCD91C494A689A42A4
:100A6000FCD81A4A51689942FCD3002318491360F4
:100A700001205360174D20704FF480232820C1F8C7
:100A8000A030D0606921D2F80CC02D79124BD16012
:100A9000124C50615069124824795161DD76007919
:100AA000DC760821D876116062B638BD520100F0BC
:100AB0006DFCC1E744E8FF1F64E8FF1F68E8FF1F03
:100AC00060E8FF1F6CE8FF1F40E8FF1F00800B403D
:100AD00000A0044058E8FF1F0080004050E8FF1FBE
:100AE00048E8FF1F2DE9F047774B1B7803F01F0004
:100AF000052882B009D803F00703013B042B29D84D
:100B0000DFE803F023CAD2D9C40006381412131444
:100B1000172800F2B682DFE810F09A0294028D02E4
:100B2000850223027A02E800630259024D02400264
:100B3000B701B002AE02A3020002FA01DF00F30126
:100B4000D501BB0173026E02050202F47F0312BAE3
:100B500043EA12425D4B5E481B88B1FBF3F49513E8
:100B600003FB141105F48075C2F3C0532B435511D8
:100B700005F48035D0F800C001EB41012B4315018D
:100B800005F080755CF831602B434FF00135A540CE
:100B900026EA050EA34043EA0E034CF831300CEB75
:100BA000C100910001F480779312910101F48078E3
:100BB000C2F3C04E03F4807351104EEA030E01F4E9
:100BC0008031931103F480764EEA010EC2F3C03CEB
:100BD000D10093104CEA060C01F4803103F48073C9
:100BE0004CEA010CC2F3C0211943D30103F4803352
:100BF0001943C2F3C01343EA0706D30203F4803358
:100C000046EA0309C2F3C00343EA0806D30303F428
:100C100080333343160206F080764EEA060E160342
:100C200006F080764CEA060C160406F0807617066D
:100C30003143160506F0807207F0807642EA090219
:100C400033430EFA04FE0CFA04FCA140A240A34078
:100C5000446824EA05044EEA04044460846824EAF3
:100C600005044CEA04048460C46824EA05042143B2
:100C7000C160016921EA05010A430261426922EA71
:100C800005021343436102B0BDE8F08712BA22F0B7
:100C9000FF024FEA32225DE713BA23F07F43D2B25C
:100CA00023F0FF031A4355E7130403F47F03C2F351
:100CB0000F221A434EE7074BC2F3074003EA022311
:100CC00043EA000246E700BF60E8FF1F6CE8FF1F31
:100CD00064E8FF1F00FFFF0002F47F4040EA02606B
:100CE000DBB20343120E43EA0242930D500B940C05
:100CF00003F4807300F480300343C2F3C06504F44E
:100D00008074100945EA040643EAD27300F080704B
:100D100094010343900B00F4807704F48078C2F3CD
:100D2000C05427435409900A04F4803400F48070BE
:100D30002743C2F3C04404435008950900F48030AF
:100D4000044305F48075C2F3C0302843D5004FEA50
:100D5000920E05F4803528430EF4807EC2F3C02540
:100D600045EA0E054FEAC21E4FEA820C0EF4803EA1
:100D70000CF4807C45EA0E05C2F3C01E4EEA0C0E50
:100D80004FEAC22C0CF4803C4EEA0C0EC2F3C00CAD
:100D90004CEA08084FEAC23C0CF4803C48EA0C0CD0
:100DA00002F0807846EA0808560A06F4803648EAD7
:100DB0000608160106F080763743160206F08076A4
:100DC00044EA0609140304F0807440EA040A10049B
:100DD00000F0807005431005120600F0807002F0EC
:100DE00080724EEA000E4CEA020CAB4AAB48128805
:100DF0000468B1FBF2F002FB101108FA00F609FAE0
:100E000000F205FA00F84D0100920AFA00F254F8D7
:100E1000059001924FF00132824087400EFA00FEA9
:100E20000CFA00FC834029EA02000343635104EBFF
:100E3000411100984B6823EA020333434B608B68EF
:100E400023EA02033B438B60CB6823EA020303439C
:100E5000CB600B69019823EA020303430B614B69E2
:100E600023EA020343EA08034B618B6923EA020386
:100E700043EA0E00CB69886123EA020343EA0C03CC
:100E8000CB6102B0BDE8F08712BA4FEA32222CE7FC
:100E900010BAC0F38933C0F352144FEA306204F43D
:100EA000803403F480732343940C04F48074C2F3FD
:100EB000C065C0F3C05045EA04061409034304F0BA
:100EC000807025E7100400F47F0040EA0363E0B27D
:100ED0000343120E43EA02229B0D500B00F48030B4
:100EE00003F48073940C0343C2F3C06504F480746C
:100EF000100945EA040643EAD27300F0807007E760
:100F0000D5B2200445EA036300F47F00E0E7E0B2D5
:100F10001B0240EA02609BB2E3E6100280B240EAA4
:100F20000460DDE62004DBB243EA026300F47F00E4
:100F30000343120E43EA0222980D530B03F480334D
:100F400000F48070940C1843C2F3C06504F48074FC
:100F5000130945EA040640EAD27003F08073D7E62D
:100F600002F47F0040EA026002F47F431843830DDD
:100F7000440B40EA126204F4803403F48073234388
:100F8000940C04F48074C2F3C06545EA04061409A5
:100F900043EAD07304F08070BAE6100400F47F00D6
:100FA000E4B202F07F421B02204310439AB2024394
:100FB000830D92E7100280B2DBB2034302F07F425E
:100FC00020041A4300F47F0002438EE620041B0233
:100FD00000F47F009BB203436FF317221A4384E6A9
:100FE000130C1B0412BA43EA12429B0D03F48073E4
:100FF000500B940C7EE602F47F0343EA026366E73B
:10100000100400F47F0040EA0460DBB260E7D0B275
:1010100000EB00241B02100E40EA04409AB2024387
:10102000830D5AE7100400F47F001B0240EA0460BD
:101030009BB29BE7100280B240EA046002F47F0397
:1010400094E7100400F47F0040EA03608CE713BAD1
:10105000200403F0FF2300F47F0040EA334086E7DA
:101060001B0210BA140E9AB2030C42EA04421B048B
:1010700042EA336239E652BA37E690B240EA036395
:1010800030E64FF0000CE6466546E246E14667462C
:10109000E0466346A9E600BF6CE8FF1F64E8FF1F57
:1010A00008B50E48002100F023F80D4A0D490B4801
:1010B00001F0BEFB0C48002100F01AF8084A09496B
:1010C000094801F0B5FB0948002100F011F8BDE81E
:1010D0000840034A0349054801F0AABB58E8FF1F2E
:1010E0001CB7FF1F5107000050E8FF1F48E8FF1F13
:1010F00010B572B6DFF8B0C0BCF80020A9B9D0F8BE
:1011000000E0BEF1000F10D003790F2B0ED842FA89
:1011100003F414F0010444D003F1007303F5906369
:10112000BEEB431F02D162B610BD002142FA01F3AB
:10113000DB0707D501311029F8D162B6002303601F
:10114000017110BD01238B401A43ACF8002062B638
:10115000164A0171D2F840C04CF0020CC2F840C0EF
:10116000D2F83CC04CF0020CC2F83CC001F1007354
:10117000A2F5802203F590634FF0820CC2F800C004
:101180005B01917691771176D1770021002203607F
:10119000C3E90012C3E90212C3E90412C3E906124B
:1011A00010BD2146C2E700BF6EE8FF1F008004406B
:1011B00003790F2B11D8094A937672B6084990F833
:1011C00004C00B88012202FA0CF223EA02030B800E
:1011D00062B6102200230271036070470080004055
:1011E0006EE8FF1F30B591F804E014790EF0FC03AF
:1011F00003F1804303F5004304F0FC0CD3F8003105
:101200000CF1804C0CF5004C4FEACE0505F01805AA
:101210001BBAEB40DCF8005195FA85FCE50005F0BF
:1012200018052CFA05FC03F00F030CF00F0C9C457D
:1012300018D90C7182F804E00B6814680C60136014
:1012400091F804E00EF0FC0303F1804303F5004342
:101250004FEACE04D3F8003104F018041BBAE3407F
:1012600003F00F03047904F0FC0C0CF1804C0CF536
:10127000004CDCF8005195FA85FCE50005F01805F6
:101280002CFA05FC0CF00F0C9C4508D280F804E009
:101290000C710D68A6460468056063460C601479FD
:1012A00004F0FC0000F1804000F500404FEAC40C5F
:1012B000D0F800010CF0180C00BA20FA0CF000F085
:1012C0000F00984206D90C7182F804E00B68106890
:1012D0000860136030BD00BF70B5012A1E468AB099
:1012E000054614BF13460A2359B34FF0210E02E0FE
:1012F00001465FFA84FEB1FBF3F003FB101CBCF166
:10130000090F0DEB0E0294BF0CF1300C0CF1370CF1
:1013100099420EF1FF3482F804C0E9D23EB10EF1D9
:10132000FF3E5FFA8EFE0DEB0E032D221A712B6825
:1013300001A95B68CEF122027144284698470AB0A1
:1013400070BD30238DF825304FF0210EE6E700BF49
:101350000029BABF49422D2300230A22FFF7BCBF50
:1013600000B5036883B040F60D22ADF804205B6839
:10137000022201A9984703B000BD00BF08B5FFF7DE
:101380006BF8FFF719F901F00FF9FAE701B441EA38
:10139000000313F003036FD1403A41D351F8043BEB
:1013A00040F8043B51F8043B40F8043B51F8043B3F
:1013B00040F8043B51F8043B40F8043B51F8043B2F
:1013C00040F8043B51F8043B40F8043B51F8043B1F
:1013D00040F8043B51F8043B40F8043B51F8043B0F
:1013E00040F8043B51F8043B40F8043B51F8043BFF
:1013F00040F8043B51F8043B40F8043B51F8043BEF
:1014000040F8043B51F8043B40F8043B51F8043BDE
:1014100040F8043B51F8043B40F8043B403ABDD24D
:10142000303211D351F8043B40F8043B51F8043BEF
:1014300040F8043B51F8043B40F8043B51F8043BAE
:1014400040F8043B103AEDD20C3205D351F8043B7E
:1014500040F8043B043AF9D204320AD0D2071CBF48
:1014600011F8013B00F8013B03D30B7803704B7874
:10147000437001BC704700BF0C2A4AD310F003032D
:1014800011D0C3F10403D21ADB071CBF11F8013BD2
:1014900000F8013B07D311F8013B00F8013B11F8BC
:1014A000013B00F8013B11F003033FF475AF30B48A
:1014B000043AC91AC3F1040C51F8044B022B19D099
:1014C000032B0BD0240A51F8043B1D0644EA050403
:1014D00040F8044B1C46043AF4D216E0240E51F8AE
:1014E000043B1D0244EA050440F8044B1C46043A40
:1014F000F4D20AE0240C51F8043B1D0444EA05042C
:1015000040F8044B1C46043AF4D20432B1EB0C010F
:1015100030BC043AA0D3013A11F8013B00F8013B7A
:10152000F9D20B7803704B7843708B78837001BCD1
:10153000704700BF08B50F4C636B58030DD4636B45
:1015400059050FD4636B1A0511D4636BDB04F3D513
:1015500000F012F8636B5803F1D500F0C9F9636B22
:101560005905EFD500F008F8636B1A05EDD500F0CA
:1015700003F8EAE70080044008B5FFF7DBFF00BF8F
:10158000014B10221A80704700200540704700BFB1
:1015900001F1FF3C30B565464FF0000E02E02046F9
:1015A0000EF1010EB0FBF2F402FB1403092B94BF01
:1015B00030333733904205F8013FF0D201EB0E0390
:1015C00000225A70BEF1000F11D0481C70440CF17B
:1015D00002021CF8014F10F8015D8CF80050A1EBDD
:1015E0000C03013B521A73449A420470EFDB084625
:1015F00030BD00BF034B002210215A615A601860B1
:101600005961704700D00340704700BF70B54FF07C
:10161000E0244FF4000682B0C4F808614FF08076F1
:10162000C4F808614FF00076C4F808611F4A2048EA
:1016300020494FF08066C4F80861282348F6FF7EF1
:101640004FF0090C00254FF00066C4F808615560A2
:10165000C2F808E0D3605361D3615362D36253632D
:10166000D3635364C2F800C04560C0F808E0C360AB
:101670004361C0F800C04D60C1F808E0CB604B6129
:10168000C1F800C001F032F8FFF7BEFF0A4C236832
:101690000093009B132BFAD900F02EFD23680193D1
:1016A000019BB3F5967FF9D302B070BD0080034073
:1016B0000090034000800B4070E8FF1F212813D8E2
:1016C0001A4B03EBC00C012953F83020DCF804302E
:1016D0000BD0042917D0002082F8800279B10229AA
:1016E0001CD003291ED0186070474FF4A27082F8F6
:1016F000801218601A6822F020021A6070474FF4B6
:1017000080721A60704701204FF4A27182F8800243
:1017100019601A6842F020021A60704740F2031202
:101720001A6070474FF481721A6070475C2A00009B
:1017300072B60D494FF0E02293690868D2F8042D83
:1017400062B6520102D5322B88BF0130074AC3F579
:101750008C334FF47A7103F23F13A2FB032301FB96
:1017600000F000EB1310704770E8FF1F398EE3386C
:10177000431E032B17D872B60C4951F8230080B1D1
:10178000DFF82CC000B53CF81320B0F800E0A2EB65
:101790000E02D0F804E041F823E02CF8132062B6E2
:1017A00000BD62B670470020704700BF4CE9FF1FC4
:1017B00014E9FF1F013803280BD872B6074B53F802
:1017C000203043B100205B680130002BFBD162B6B2
:1017D0007047002070471846F9E700BF2CE9FF1F4B
:1017E00000B572B61A4ADFF86CE0042311780907D5
:1017F00043F0010C02F1010205D55EF8331069B126
:101800005EF83C10B9B10433142BEFD162B6124B21
:1018100000221A705DF804EB00F0E4BC0E490EEBF8
:10182000C302083050600A780C484EF83300013A81
:101830000A7062B600BD084A09490EEBCC030830B5
:10184000586013784EF83C10013B137062B600BD2F
:10185000982B00000080FF1F7EE8FF1F88004000DB
:10186000C8004000431E032B10D81D4A400140F021
:10187000100000B5104472B6DFF868C01CF80320F1
:10188000032A1CD8DFE802F013150318704705225D
:101890000CF8032010F0080F0A880CBF8823C82317
:1018A000083143EA02434160036062B600BD03228F
:1018B000EEE708300222EBE708300422E8E70A4AA4
:1018C00052F8230038B1094A52F82300416042F827
:1018D000231062B600BD42F82310044AF7E700BFA8
:1018E0000080FF1F10E9FF1F2CE9FF1F1CE9FF1FED
:1018F0002DE9F04FA74EA84DDFF8A09287B03BE04E
:10190000A74F4FEA930807EBC80A013ADAF8041028
:1019100013F00803D4B2A1F1080079D157F83820A8
:10192000120C21F8082C002A6DD021F8063C41F851
:10193000043C9C4951F82430002B00F01C819A494A
:1019400051F824305860994B41F8240033F81410B2
:101950000A4423F8142000F025FC002800F004813C
:1019600008301AF0080FCAF804004FD0904B47F81F
:101970003830082386F8803096F8804061071BD500
:101980002B78B3B199F8002002F0FF0332B1013B8C
:10199000DBB289F80030002B00F08B8385490A7890
:1019A00002F0FF032AB1013BDBB20B70002B00F009
:1019B0003081042386F8803014F0080300F0108191
:1019C00096F89020D3B212099AD1754C9B0804EB7B
:1019D000C30054F833104068C1F38301092900F0B3
:1019E000868043D80139012909D8734A178842F201
:1019F00021018F4200F008826D4A44F83320012310
:101A000086F89430B5E71AF0080FAFD16B4BAEE70C
:101A100000F0E8FB6A4A6B4852F82430015D002B65
:101A200000F0AD80D3F804C042F824C003F10802EE
:101A3000CAF80420032905D8DFE801F0120F1502C7
:101A4000042202551A881AF0080F0CBF8823C823F5
:101A500043EA024347F838308BE702220255F1E7A8
:101A600003220255EEE705220255EBE70D29C6D108
:101A7000D0E90017DFF838E1534844F833E0DFF8E5
:101A800038C1DFF8488122618BB240F2816E02607A
:101A9000A26173454FF00102CCE9001788F80020DD
:101AA00000F2BA80B3F5D06F80F0CE82B3F5817FBB
:101AB00000F0E38200F27181802B00F02982822BFA
:101AC00040F06F8207F07F07042F00F26A82BF00A8
:101AD00007F180433E4A03F5E4230021118093F887
:101AE000C0309F0740F117820123137013E236487C
:101AF000026862B3DFF8DCE0DFF8D080BEF800C037
:101B0000354998F800A00B786746402F28BF40273A
:101B1000BAF1000F8AF0010A88F800A043F0020829
:101B200083F001030B7004EBC8035A600CBF8823D9
:101B3000C82343EA074344F83830ACEB07039BB2B1
:101B4000AEF80030002B00F01881D31903601A4B57
:101B50001A88B2F5A06F7FF452AF00225A705A88EB
:101B60000C4B83F898204AE71C4A47F83800137852
:101B700001331370FDE641F824000B49E3E6022926
:101B800000F0F9807FF6F5AE032940F0EF800123E5
:101B90000355EEE6002007407DE8FF1F7CE8FF1FAD
:101BA0000080FF1F4CE9FF1F3CE9FF1F14E9FF1FE6
:101BB000C800400068E9FF1F08E9FF1F88004000D7
:101BC0002CE9FF1F10E9FF1F84E8FF1F7FE8FF1FBC
:101BD00074E8FF1F82E8FF1F80E8FF1F7EE8FF1FF9
:101BE000E00700F13B81210600F1CC80A20707D578
:101BF000AD4B022193F8882083F8882083F8801069
:101C0000E30603D5A84B102283F8802007B0BDE877
:101C1000F08F00F09FFCCCE642F2210E734500F0FD
:101C2000A18000F2CF80B3F5086F00F0B081B3F56A
:101C3000106F40F0B6819D4B090C1970042702E02B
:101C40000137142F0CD054F837301A06F8D504EBAE
:101C5000C70301375868083800F0C4FA142FF2D1CE
:101C6000934A0492934A0292934A0192CDF81480C7
:101C7000924ADFF84CA2DFF84C82039200275AF810
:101C800004BBBBF1000F07D05846DBF804B000F0EE
:101C9000A9FABBF1000FF7D1039BD8F800B043F8C5
:101CA000047B4AF8047C0393BBF1000F07D058462D
:101CB000DBF804B000F096FABBF1000FF7D1049BFB
:101CC000019A43F8047B0493029B48F8047B23F8B1
:101CD000027B029312F8013B0192023B032B0AD8CC
:101CE000DFE813F09301040093010400019B4FF01F
:101CF000010203F8012C744B5345C0D1734F744B50
:101D0000DDF814B00022B846724F1A7018F8013B83
:101D100007F8043BDFF8C0A11B07BA4400F1798142
:101D20004AF002034AF0030A44F833206B4B44F8AC
:101D30003A209F42EAD16A489BF8007090F800E090
:101D40004EF0020104EBC1035A60002F40F0B28153
:101D5000882344F831308EF0010E012380F800E032
:101D60008BF80030012386F8943048E61AF0080F0B
:101D70000CBF022303230355FBE5BCF1400F7FF4A6
:101D8000E5AEE2E6484B80220D2183F8C01083F8CF
:101D90008020A2077FF534AF2AE740F20232934257
:101DA00040F0FB8007F07F07042F00F2FA80090C57
:101DB00040F0F7804B4A12F8273043F0020302F854
:101DC00027300DE042F22122934240F0F280BFB270
:101DD00037B9454B1A68454B1A60454B090C1970C9
:101DE0003F48037843F0020283F00103037004EBE1
:101DF000C20300215960C827012344F8327088F8D3
:101E0000001086F89430FAE5928862B9394AC71D05
:101E100010F8011B02F8011FB842F9D1364A1268C6
:101E2000862A00F0CC80DFF8D4802D4998F8000095
:101E30000A78002880F0010088F8000042F00200D3
:101E400082F001020A7004EBC0024FF00001516001
:101E50000CBF8822C82244F83020CDE5124A204821
:101E60002749284C022582F89450037026480C60BC
:101E7000264D48608C600D24CD60FF200B618B6186
:101E800082F8C04001219F2482F8880082F88000F7
:101E900082F8983082F88C0082F8844082F894109E
:101EA00007B0BDE8F08F00BF002007407DE8FF1FAE
:101EB0001CE9FF1F14E9FF1F10E9FF1F3CE9FF1F8A
:101EC0004CE9FF1F2CE9FF1F5CE9FF1F982B000066
:101ED0007EE8FF1FC42007403CDFF8BFD420074046
:101EE00080E8FF1FC020074070E8FF1F6CE9FF1F5C
:101EF00069E9FF1F6FE9FF1F70E9FF1F7FE8FF1F00
:101F00000080FF1F88004000C8E8FF1F88E8FF1F0F
:101F10006E4A002313806D4A0223BCF806A06C4968
:101F20009A4528BF9A46574691F800E0402F28BFAF
:101F300040274EF0020C3B0404EBCC0B43F0C803EB
:101F4000CBF8042044F83C30002302EB070C88F85F
:101F50000030BAEB07078EF001030B7033D1BAF1F2
:101F6000400F4FF001077FF4FDAE43F00203DBB2F8
:101F700004EBC30288F80070C2F804C0882244F859
:101F80003320012381F800E086F8943037E51346CA
:101F9000504A11784D4A1170BFE7B3F5A06F3FF476
:101FA0001FAF4D4B0F2283F8C020012386F89430D9
:101FB00025E542F2213293423FF412AFF1E7474A5E
:101FC0000F2111702FE781F800E043F00201C9B240
:101FD000402F04EBC1023B4628BF4023C2F804C097
:101FE0001A0442F0880244F83120012288F80020C7
:101FF000FA1A07D063440360394B1A80012386F82C
:102000009430FCE4402FF5D0ACE6019B03F8017C52
:1020100071E600F0C7F8002844D004EBCA0308308A
:102020005860304B44F83A3000F0BCF84AF00103F5
:10203000002200282FD004EBC30C0830CCF8040099
:10204000294844F833006BE6284B5A68002AA8D088
:10205000090CBFB203E01A690C33002AA1D0B3F80F
:1020600000E08E45F7D1B3F802E0BE45F3D1090A8E
:1020700003290CBF13781B894FE707F07F07042F54
:102080008FD8090C8DD11A4A12F8273023F0020399
:1020900002F82730A4E6174944F833000B780133DF
:1020A0000B703DE6134944F83A000B7801330B708E
:1020B000BAE700BE8EF0010387F001070370C82362
:1020C00044F831308BF800704CE600BF74E8FF1F15
:1020D00080E8FF1F7DE8FF1F002007407CE8FF1F0E
:1020E00082E8FF1F88004000C80040009C2B0000D1
:1020F000C02007407EE8FF1F70B500F05DFB0023A5
:10210000194A194642F8331002EBC3000133142B6D
:102110004160F7D1154C164B606B164D40F4802092
:102120006063140A83F89C40134CFF204FF0010CAD
:10213000160C120E83F8B0604FF0E02E83F8B42036
:1021400083F8800083F88800187483F894C02170A5
:1021500083F884C0702385F849304FF4007210234F
:10216000CEF80821237270BD0080FF1F008004405C
:102170000020074000E400E00021074000F0B8B86C
:1021800000F084B800F056B800F09AB800F0A8B992
:1021900000F07EB90846114600F0C6B8084600F0C7
:1021A0006BB900BF72B60D480268B2FA82F30B2B0E
:1021B00010DC4FF00041D94022EA0102026062B611
:1021C000074903EBC30301EBC300002241F83320AE
:1021D0004260704762B60020704700BF34B7FF1FEF
:1021E000BCB3FF1F0E4BC31AB3F5587F10D20D4A74
:1021F000127872B972B60C4A0C49A2FB0323086824
:102200004FF000421B0922FA03F303430B6062B64E
:102210007047074A1278002AECD0FFF7E1BA00BFF6
:10222000BCB3FF1F7EE8FF1F398EE33834B7FF1FB2
:102230007DE8FF1F00B5134A106883B0A8B143883A
:10224000B0F800C0C11801339C45097A03D9438016
:10225000084603B000BD0191FFF7C4FF0199094A88
:1022600000230846136003B000BD074B1B7833B151
:102270000320FFF77DFA034A10600028DFD14FF0FA
:10228000FF31E5E764E9FF1F7DE8FF1F08B50A4B52
:10229000186818B143881844007A08BD074A1278B4
:1022A00032B10320FFF764FA034B18600028F1D124
:1022B0004FF0FF3008BD00BF64E9FF1F7DE8FF1F3E
:1022C000094B0A4A1B6890881BB11A885B88D31A8D
:1022D000184400B1704700B583B0019000F064F974
:1022E000019803B000BD00BF64E9FF1F14E9FF1FA0
:1022F00008B50B4B1B7893B10A4B186850B1FFF728
:1023000071FF084B002203201A60FFF731FA30B149
:10231000FFF768FF0320FFF72BFA0028F8D108BD6C
:102320007DE8FF1F64E9FF1F2DE9F04FDFF83491CE
:10233000012283B00C4689F8002000296ED04A4D56
:102340004A4E4B4F0A464FF0000A80460B4629681A
:1023500029B33446B1F802C084F800A0CCF140049F
:10236000944228BF14460CEB040080B24880121B34
:10237000002C5AD08C440CF1070C444418F8010B83
:102380000CF8010FA045F9D148883F2836D805211F
:102390003970002A41D02968A0460029D9D1354991
:1023A0000978002955D0CDE90023304C48F6014B7F
:1023B0000AE0BBF1010B1AD02378C3B900F0F4F89E
:1023C0002C4B1B78002B44D00420FFF7F3F907288F
:1023D000EFD84FF0010389F80030FFF7E3FE2860E3
:1023E00000283AD1BBF1010B89F80000E4D10123A8
:1023F00023704FF0FF3003B0BDE8F08F402008801D
:102400000420CDE90023FFF72DFADDE900230521A3
:10241000C5F800A03970002ABDD11C460023204613
:1024200089F8003003B0BDE8F08F3F2803D8104989
:10243000052008708BE7402008800420CDE90023A8
:10244000FFF710FA0A492C600520DDE90023087027
:102450007DE7002389F80030CBE7DDE90023014662
:1024600078E700BF5DE9FF1F60E9FF1F5CE9FF1F20
:1024700068E9FF1F7DE8FF1F00B583B001218DF8DB
:1024800007000DF10700FFF74FFF03B000BD00BFCD
:10249000104A08B51068104B0121197028B1408806
:1024A00000221A70C0F1400008BD0C49097811B92A
:1024B0000020187008BD0420FFF77CF90728064BA0
:1024C000F6D8FFF76FFE034A034B10600028E6D1F1
:1024D000EEE700BF60E9FF1F5DE9FF1F7DE8FF1F1A
:1024E000184B1B78C3B110B5174A184C136801215B
:1024F00082B021708BB116494FF0000008705988E6
:10250000198004201946FFF7ADF90F4A0023136024
:102510000023237002B010BD70470193FFF742FE05
:10252000012160B1DFF828C0019B8CF80030014622
:102530000420FFF797F90023237002B010BD044B6D
:102540001970E5E77DE8FF1F60E9FF1F5DE9FF1FE8
:1025500068E9FF1F114B1B788BB900B503F0FF0230
:102560000F4B196883B059B1488808800420019244
:10257000FFF778F90A4B019A1A6003B000BD704763
:10258000FFF710FE30B10146042003B05DF804EB04
:10259000FFF768B9034B01221A70EEE75DE9FF1FF0
:1025A00060E9FF1F68E9FF1F2DE9F041314F3B78DB
:1025B00083B1DFF8C48098F800205AB90122D90706
:1025C00088F8002040D49A0727D400225B0788F8B7
:1025D000002001D4BDE8F081284B1A68002AF9D008
:1025E000EFF30582002AF5D1EFF3108572B6186873
:1025F000002835D0224C2178002931D142691A6057
:1026000001232370002A32D0916105B962B60025FA
:102610008368457798472570DCE71A4A1278002AC4
:10262000D3D0194E002556F8044B236820461B6969
:10263000984708B123699847124B01351A78EBB2D5
:102640009A42F0D83B78C0E7FFF73AFE60B90F4AEC
:102650003B781278002AB6D003F0FE033B70B2E755
:10266000002DB7D162B6B5E700F0A4F8EFE7084B4C
:102670001A60CAE738B7FF1F78E9FF1F88E9FF1F14
:1026800079E9FF1F8CE9FF1FA0E9FF1F942B0000D1
:1026900084E9FF1F70B5EFF3108272B60C4C20680E
:1026A00080B10C4E00254369236073B19D6102B96E
:1026B00062B6836845779847EFF3108272B6206858
:1026C0000028F0D102B962B670BD3360EFE700BFF9
:1026D00080E9FF1F7CE9FF1FFFF7DCBF024A136898
:1026E00001331360704700BF70E8FF1F2A4B2B4A6D
:1026F0006020E1211870597013782948082B34D0D4
:102700000A2B20D00C2B274B0CBF15213D21122268
:102710008160C2609960DA60234B21491B78214AAD
:10272000CBB101230B621362204B1D491B781D4A5C
:10273000012B13D9042B1BD884234B6253621C4BEF
:1027400001221A707047174B192113228160C26051
:102750009960DA60E0E70B621362E5E780234B6281
:102760005362134B01221A7070470E4B0121ECE7A4
:10277000082B06D885234B6253620D4B01221A7039
:102780007047102B94BF862387234B625362084BFC
:1027900001221A70704700BF004007403AB7FF1F80
:1027A00000B0034000B00B40ACE9FF1F39B7FF1F7A
:1027B000ADE9FF1F704700BF00B585B072B6194A7A
:1027C0004FF0700C41200F21802382F800C0D0719F
:1027D0009171137013781B06FCD5936862B6124A88
:1027E00003EB83004000934228BF184669460A2243
:1027F000FEF7CEFEDFF834C000226B466046197843
:102800000132013341B10A2A20F8021FF7D1162202
:102810008CF8002005B000BD52008CF8002005B0F7
:1028200000BD00BF00000240809698003CB7FF1F2B
:1028300003460846194600F001B800BF13460A4691
:102840000146022000F06EB830B584078646034684
:1028500006D0A2B303F8011B980702F1FF32F8D1AA
:10286000032A26D95FFA81FC0CEB0C2C0F2A0CEB07
:102870000C402AD922F00F0C9C44C3E90000C3E9A4
:10288000020010336345F8D112F00C0F02F00F0470
:1028900017D04FEA940C0CF1FF351A4603EB8C0C61
:1028A00042F8040B6245FBD1043304F0030203EB4E
:1028B000850322B11A4403F8011B9A42FBD17046EA
:1028C00030BD2246002AF5D1F9E71446E1E700BF02
:1028D00070B50E4E0E4DAE4208D0761BB6100024D9
:1028E00055F8043B01349847A642F9D8094E0A4DE1
:1028F00000F07EF9AE4208D0761BB610002455F8E1
:10290000043B01349847A642F9D870BDFC2B000067
:10291000FC2B00000C2C0000FC2B0000704700BFBB
:10292000704700BFF0B51D4C83B00546206801918B
:1029300016461F46FFF7F2FF194A0199136823B3A1
:102940005A6820681F2A23DC4DB9541C02325C608F
:1029500043F82210FFF7E4FF002003B0F0BD03EBC3
:10296000820E0124CEF88860D3F888C194404CEAE6
:10297000040C022DC3F888C1CEF80871E5D1D3F854
:102980008C512543C3F88C51DFE7064B1360D7E722
:10299000FFF7C6FF4FF0FF30DFE700BFE0B7FF1FD4
:1029A00044EBFF1FB4E9FF1F024B13B1024800F0D4
:1029B00005B8704700000000C92900000023014647
:1029C0001A461846FFF7AEBF38B5074D074C2C1B0B
:1029D000A41005D0013C55F8043D9847002CF9D1CE
:1029E000BDE8384000F012B900000000000000000F
:1029F000616E6B65722D7465656E737920626F6FA1
:102A0000740000006D63753D000000005445454EA4
:102A1000535933320000000070696E733D322C311F
:102A2000342C372C382C362C32302C32312C3500CB
:102A30006E5F6C65643D00006E5F6C696E65733D32
:102A4000000000006F63746F20626567696E2E2E50
:102A50002E000000726561647900FFFF4008FE43AC
:102A600040A004404408FE4344A004400018FE4334
:102A700000C004403000FE43309004403400FE4368
:102A8000349004401C18FE431CC004401018FE4340
:102A900010C004400818FE4308C004400C18FE4350
:102AA0000CC004400C10FE430CB004401010FE4358
:102AB00010B004401810FE4318B004401C10FE4330
:102AC0001CB004401410FE4314B004400418FE432C
:102AD00004C004400010FE4300B004400008FE4360
:102AE00000A004400408FE4304A004400C08FE4378
:102AF0000CA004400808FE4308A004401418FE433C
:102B000014C004401818FE4318C004400410FE43CB
:102B100004B004400810FE4308B004401400FE4313
:102B2000149004404C08FE434CA004400420FE4393
:102B300004D004402410FE4324B004402010FE437F
:102B400020B004402810FE4328B004402C10FE435F
:102B50002CB004400020FE4300D004404808FE434F
:102B600048A004401000FE43109004400000000004
:102B7000000000009D21000095210000912100002F
:102B80008D210000892100008521000081210000A5
:102B90007D21000000FFFFFF001519150001000056
:102BA000CCB7FF1F120000000002000088B7FF1F13
:102BB000430000000003000084B7FF1F0000000076
:102BC000010309046CB7FF1F0000000002030904A1
:102BD00054B7FF1F00000000030309043CB7FF1FA8
:102BE00000000000000000000000000000000000E5
:102BF000F8B500BFF8BC08BC9E467047A929000084
:0C2C000035040000FD060000A1100000DB
:042C0C00F8B500BF58
:082C100020FCFF7F0100000021
:102C180000000000FF000000742B0000000000000E
:102C2800E803000000000000FFFFFFFF01040A00A6
:102C38000C0300000000000000000000000000007D
:102C48000000000000000000160355005300420079
:102C58002000530065007200690061006C000000EC
:102C680018035400650065006E0073007900640065
:102C7800750069006E006F0004030904090243002F
:102C8800020100C03209040000010202010005240B
:102C98000010010524010101042402060524060090
:102CA800010705820310004009040100020A000020
:102CB80000070503024000000705840240000000E9
:102CC8001201100102000040C016830475020102BF
:082CD80003010000B0E9FF1F39
:00000001FF
